{
  "_format": "hh-sol-artifact-1",
  "contractName": "GasPrice",
  "sourceName": "contracts/gasPrice.sol",
  "abi": [
    {
      "inputs": [],
      "stateMutability": "nonpayable",
      "type": "constructor"
    },
    {
      "inputs": [
        {
          "internalType": "address",
          "name": "owner",
          "type": "address"
        }
      ],
      "name": "OwnableInvalidOwner",
      "type": "function"
    },
    {
      "inputs": [
        {
          "internalType": "address",
          "name": "account",
          "type": "address"
        }
      ],
      "name": "OwnableUnauthorizedAccount",
      "type": "function"
    },
    {
      "anonymous": false,
      "inputs": [
        {
          "indexed": true,
          "internalType": "address",
          "name": "previousOwner",
          "type": "address"
        },
        {
          "indexed": true,
          "internalType": "address",
          "name": "newOwner",
          "type": "address"
        }
      ],
      "name": "OwnershipTransferred",
      "type": "event"
    },
    {
      "inputs": [],
      "name": "gasPrice",
      "outputs": [
        {
          "internalType": "uint256",
          "name": "",
          "type": "uint256"
        }
      ],
      "stateMutability": "view",
      "type": "function"
    },
    {
      "inputs": [],
      "name": "owner",
      "outputs": [
        {
          "internalType": "address",
          "name": "",
          "type": "address"
        }
      ],
      "stateMutability": "view",
      "type": "function"
    },
    {
      "inputs": [],
      "name": "renounceOwnership",
      "outputs": [],
      "stateMutability": "nonpayable",
      "type": "function"
    },
    {
      "inputs": [
        {
          "internalType": "uint256",
          "name": "_gasPrice",
          "type": "uint256"
        }
      ],
      "name": "setGasPrice",
      "outputs": [],
      "stateMutability": "nonpayable",
      "type": "function"
    },
    {
      "inputs": [
        {
          "internalType": "address",
          "name": "newOwner",
          "type": "address"
        }
      ],
      "name": "transferOwnership",
      "outputs": [],
      "stateMutability": "nonpayable",
      "type": "function"
    }
  ],
  "bytecode": "0x6080604052348015600f57600080fd5b503380604e576040517f1e4fbdf70000000000000000000000000000000000000000000000000000000081526000600482015260240160405180910390fd5b6055816064565b50655af3107a400060015560b4565b600080546001600160a01b038381166001600160a01b0319831681178455604051919092169283917f8be0079c531659141344cd1fd0a4f28419497f9722a3daafe3b4186f6b6457e09190a35050565b61027d806100c36000396000f3fe608060405234801561001057600080fd5b50600436106100675760003560e01c8063bf1fe42011610050578063bf1fe42014610096578063f2fde38b146100a9578063fe173b97146100bc57600080fd5b8063715018a61461006c5780638da5cb5b14610076575b600080fd5b6100746100d3565b005b6000546040516001600160a01b0390911681526020015b60405180910390f35b6100746100a43660046101fe565b6100e7565b6100746100b7366004610217565b6100f4565b6100c560015481565b60405190815260200161008d565b6100db610150565b6100e56000610196565b565b6100ef610150565b600155565b6100fc610150565b6001600160a01b038116610144576040517f1e4fbdf7000000000000000000000000000000000000000000000000000000008152600060048201526024015b60405180910390fd5b61014d81610196565b50565b6000546001600160a01b031633146100e5576040517f118cdaa700000000000000000000000000000000000000000000000000000000815233600482015260240161013b565b600080546001600160a01b038381167fffffffffffffffffffffffff0000000000000000000000000000000000000000831681178455604051919092169283917f8be0079c531659141344cd1fd0a4f28419497f9722a3daafe3b4186f6b6457e09190a35050565b60006020828403121561021057600080fd5b5035919050565b60006020828403121561022957600080fd5b81356001600160a01b038116811461024057600080fd5b939250505056fea2646970667358221220f8b0c690910c9c79866f3702f42169696f08899847931e60aa40c4b18503438964736f6c634300081c0033",
  "linkReferences": {},
  "deployedLinkReferences": {}
}